{
  "contractName": "Travel",
  "abi": [
    {
      "inputs": [],
      "stateMutability": "nonpayable",
      "type": "constructor"
    },
    {
      "anonymous": false,
      "inputs": [
        {
          "indexed": false,
          "internalType": "string",
          "name": "actionType",
          "type": "string"
        }
      ],
      "name": "Action",
      "type": "event"
    },
    {
      "inputs": [],
      "name": "balance",
      "outputs": [
        {
          "internalType": "uint256",
          "name": "",
          "type": "uint256"
        }
      ],
      "stateMutability": "view",
      "type": "function"
    },
    {
      "inputs": [
        {
          "internalType": "string",
          "name": "name",
          "type": "string"
        },
        {
          "internalType": "string",
          "name": "imageUrl",
          "type": "string"
        },
        {
          "internalType": "string",
          "name": "category",
          "type": "string"
        },
        {
          "internalType": "string",
          "name": "description",
          "type": "string"
        }
      ],
      "name": "addRoute",
      "outputs": [],
      "stateMutability": "nonpayable",
      "type": "function"
    },
    {
      "inputs": [
        {
          "internalType": "uint256",
          "name": "routeId",
          "type": "uint256"
        },
        {
          "internalType": "string",
          "name": "name",
          "type": "string"
        },
        {
          "internalType": "string",
          "name": "imageUrl",
          "type": "string"
        },
        {
          "internalType": "string",
          "name": "category",
          "type": "string"
        },
        {
          "internalType": "string",
          "name": "description",
          "type": "string"
        }
      ],
      "name": "updateRoute",
      "outputs": [],
      "stateMutability": "nonpayable",
      "type": "function"
    },
    {
      "inputs": [
        {
          "internalType": "uint256",
          "name": "routeId",
          "type": "uint256"
        }
      ],
      "name": "deleteRoute",
      "outputs": [],
      "stateMutability": "nonpayable",
      "type": "function"
    },
    {
      "inputs": [],
      "name": "getRoutes",
      "outputs": [
        {
          "components": [
            {
              "internalType": "uint256",
              "name": "id",
              "type": "uint256"
            },
            {
              "internalType": "string",
              "name": "name",
              "type": "string"
            },
            {
              "internalType": "string",
              "name": "category",
              "type": "string"
            },
            {
              "internalType": "string",
              "name": "description",
              "type": "string"
            },
            {
              "internalType": "uint256",
              "name": "timestamp",
              "type": "uint256"
            },
            {
              "internalType": "bool",
              "name": "deleted",
              "type": "bool"
            }
          ],
          "internalType": "struct Travel.RouteStruct[]",
          "name": "Routes",
          "type": "tuple[]"
        }
      ],
      "stateMutability": "view",
      "type": "function"
    },
    {
      "inputs": [
        {
          "internalType": "uint256",
          "name": "id",
          "type": "uint256"
        }
      ],
      "name": "getRoute",
      "outputs": [
        {
          "components": [
            {
              "internalType": "uint256",
              "name": "id",
              "type": "uint256"
            },
            {
              "internalType": "string",
              "name": "name",
              "type": "string"
            },
            {
              "internalType": "string",
              "name": "category",
              "type": "string"
            },
            {
              "internalType": "string",
              "name": "description",
              "type": "string"
            },
            {
              "internalType": "uint256",
              "name": "timestamp",
              "type": "uint256"
            },
            {
              "internalType": "bool",
              "name": "deleted",
              "type": "bool"
            }
          ],
          "internalType": "struct Travel.RouteStruct",
          "name": "",
          "type": "tuple"
        }
      ],
      "stateMutability": "view",
      "type": "function"
    },
    {
      "inputs": [
        {
          "internalType": "uint256",
          "name": "routeId",
          "type": "uint256"
        },
        {
          "internalType": "uint256[]",
          "name": "ticketCosts",
          "type": "uint256[]"
        },
        {
          "internalType": "uint256[]",
          "name": "startTimes",
          "type": "uint256[]"
        },
        {
          "internalType": "uint256[]",
          "name": "endTimes",
          "type": "uint256[]"
        },
        {
          "internalType": "uint256[]",
          "name": "capacities",
          "type": "uint256[]"
        },
        {
          "internalType": "uint256[]",
          "name": "travelDays",
          "type": "uint256[]"
        }
      ],
      "name": "addTimeslot",
      "outputs": [],
      "stateMutability": "nonpayable",
      "type": "function"
    },
    {
      "inputs": [
        {
          "internalType": "uint256",
          "name": "routeId",
          "type": "uint256"
        },
        {
          "internalType": "uint256",
          "name": "slotId",
          "type": "uint256"
        }
      ],
      "name": "deleteTimeSlot",
      "outputs": [],
      "stateMutability": "nonpayable",
      "type": "function"
    },
    {
      "inputs": [
        {
          "internalType": "uint256",
          "name": "routeId",
          "type": "uint256"
        },
        {
          "internalType": "uint256",
          "name": "slotId",
          "type": "uint256"
        }
      ],
      "name": "markTimeSlot",
      "outputs": [],
      "stateMutability": "nonpayable",
      "type": "function"
    },
    {
      "inputs": [
        {
          "internalType": "uint256",
          "name": "day",
          "type": "uint256"
        }
      ],
      "name": "getTimeSlotsByDay",
      "outputs": [
        {
          "components": [
            {
              "internalType": "uint256",
              "name": "id",
              "type": "uint256"
            },
            {
              "internalType": "uint256",
              "name": "routeId",
              "type": "uint256"
            },
            {
              "internalType": "uint256",
              "name": "ticketCost",
              "type": "uint256"
            },
            {
              "internalType": "uint256",
              "name": "startTime",
              "type": "uint256"
            },
            {
              "internalType": "uint256",
              "name": "endTime",
              "type": "uint256"
            },
            {
              "internalType": "uint256",
              "name": "capacity",
              "type": "uint256"
            },
            {
              "internalType": "uint256",
              "name": "seats",
              "type": "uint256"
            },
            {
              "internalType": "bool",
              "name": "deleted",
              "type": "bool"
            },
            {
              "internalType": "bool",
              "name": "completed",
              "type": "bool"
            },
            {
              "internalType": "uint256",
              "name": "day",
              "type": "uint256"
            },
            {
              "internalType": "uint256",
              "name": "balance",
              "type": "uint256"
            }
          ],
          "internalType": "struct Travel.TimeSlotStruct[]",
          "name": "RouteSlots",
          "type": "tuple[]"
        }
      ],
      "stateMutability": "view",
      "type": "function"
    },
    {
      "inputs": [
        {
          "internalType": "uint256",
          "name": "slotId",
          "type": "uint256"
        }
      ],
      "name": "getTimeSlot",
      "outputs": [
        {
          "components": [
            {
              "internalType": "uint256",
              "name": "id",
              "type": "uint256"
            },
            {
              "internalType": "uint256",
              "name": "routeId",
              "type": "uint256"
            },
            {
              "internalType": "uint256",
              "name": "ticketCost",
              "type": "uint256"
            },
            {
              "internalType": "uint256",
              "name": "startTime",
              "type": "uint256"
            },
            {
              "internalType": "uint256",
              "name": "endTime",
              "type": "uint256"
            },
            {
              "internalType": "uint256",
              "name": "capacity",
              "type": "uint256"
            },
            {
              "internalType": "uint256",
              "name": "seats",
              "type": "uint256"
            },
            {
              "internalType": "bool",
              "name": "deleted",
              "type": "bool"
            },
            {
              "internalType": "bool",
              "name": "completed",
              "type": "bool"
            },
            {
              "internalType": "uint256",
              "name": "day",
              "type": "uint256"
            },
            {
              "internalType": "uint256",
              "name": "balance",
              "type": "uint256"
            }
          ],
          "internalType": "struct Travel.TimeSlotStruct",
          "name": "",
          "type": "tuple"
        }
      ],
      "stateMutability": "view",
      "type": "function"
    },
    {
      "inputs": [
        {
          "internalType": "uint256",
          "name": "routeId",
          "type": "uint256"
        }
      ],
      "name": "getTimeSlots",
      "outputs": [
        {
          "components": [
            {
              "internalType": "uint256",
              "name": "id",
              "type": "uint256"
            },
            {
              "internalType": "uint256",
              "name": "routeId",
              "type": "uint256"
            },
            {
              "internalType": "uint256",
              "name": "ticketCost",
              "type": "uint256"
            },
            {
              "internalType": "uint256",
              "name": "startTime",
              "type": "uint256"
            },
            {
              "internalType": "uint256",
              "name": "endTime",
              "type": "uint256"
            },
            {
              "internalType": "uint256",
              "name": "capacity",
              "type": "uint256"
            },
            {
              "internalType": "uint256",
              "name": "seats",
              "type": "uint256"
            },
            {
              "internalType": "bool",
              "name": "deleted",
              "type": "bool"
            },
            {
              "internalType": "bool",
              "name": "completed",
              "type": "bool"
            },
            {
              "internalType": "uint256",
              "name": "day",
              "type": "uint256"
            },
            {
              "internalType": "uint256",
              "name": "balance",
              "type": "uint256"
            }
          ],
          "internalType": "struct Travel.TimeSlotStruct[]",
          "name": "RouteSlots",
          "type": "tuple[]"
        }
      ],
      "stateMutability": "view",
      "type": "function"
    },
    {
      "inputs": [
        {
          "internalType": "uint256",
          "name": "routeId",
          "type": "uint256"
        },
        {
          "internalType": "uint256",
          "name": "slotId",
          "type": "uint256"
        },
        {
          "internalType": "uint256",
          "name": "tickets",
          "type": "uint256"
        }
      ],
      "name": "buyTicket",
      "outputs": [],
      "stateMutability": "payable",
      "type": "function"
    },
    {
      "inputs": [
        {
          "internalType": "uint256",
          "name": "routeId",
          "type": "uint256"
        },
        {
          "internalType": "uint256",
          "name": "slotId",
          "type": "uint256"
        }
      ],
      "name": "getRouteTicketHolders",
      "outputs": [
        {
          "internalType": "address[]",
          "name": "",
          "type": "address[]"
        }
      ],
      "stateMutability": "view",
      "type": "function"
    },
    {
      "inputs": [
        {
          "internalType": "address",
          "name": "to",
          "type": "address"
        },
        {
          "internalType": "uint256",
          "name": "amount",
          "type": "uint256"
        }
      ],
      "name": "withdrawTo",
      "outputs": [],
      "stateMutability": "nonpayable",
      "type": "function"
    }
  ],
  "bytecode": "0x60806040525f80555f6001555f60025534801561001a575f80fd5b50600160045f3373ffffffffffffffffffffffffffffffffffffffff1673ffffffffffffffffffffffffffffffffffffffff1681526020019081526020015f205f6101000a81548160ff02191690831515021790555061409b8061007d5f395ff3fe6080604052600436106100e7575f3560e01c80637a8eab7011610089578063b69ef8a811610058578063b69ef8a8146102e1578063c4c6710d1461030b578063d6cbac9014610327578063fa66358a14610363576100e7565b80637a8eab701461022b5780637cd35a0a146102535780637e9280721461028f5780639693c4a4146102b9576100e7565b806345e9a8fc116100c557806345e9a8fc1461018b57806346b87485146101b357806358a9525b146101db57806377340bba14610203576100e7565b80630c6081ca146100eb578063205c2878146101275780632b85dcc91461014f575b5f80fd5b3480156100f6575f80fd5b50610111600480360381019061010c91906125f4565b61039f565b60405161011e9190612719565b60405180910390f35b348015610132575f80fd5b5061014d60048036038101906101489190612763565b61044b565b005b34801561015a575f80fd5b50610175600480360381019061017091906127a1565b61053f565b60405161018291906128d4565b60405180910390f35b348015610196575f80fd5b506101b160048036038101906101ac91906125f4565b6105f9565b005b3480156101be575f80fd5b506101d960048036038101906101d49190612a2a565b6107d5565b005b3480156101e6575f80fd5b5061020160048036038101906101fc91906125f4565b610ab1565b005b34801561020e575f80fd5b5061022960048036038101906102249190612bc2565b610d96565b005b348015610236575f80fd5b50610251600480360381019061024c9190612cd7565b611206565b005b34801561025e575f80fd5b50610279600480360381019061027491906127a1565b611527565b6040516102869190612f46565b60405180910390f35b34801561029a575f80fd5b506102a361177b565b6040516102b0919061312f565b60405180910390f35b3480156102c4575f80fd5b506102df60048036038101906102da91906127a1565b611a9d565b005b3480156102ec575f80fd5b506102f5611ce6565b604051610302919061315e565b60405180910390f35b61032560048036038101906103209190613177565b611cec565b005b348015610332575f80fd5b5061034d600480360381019061034891906127a1565b611ff8565b60405161035a9190612f46565b60405180910390f35b34801561036e575f80fd5b50610389600480360381019061038491906127a1565b6121ff565b604051610396919061325b565b60405180910390f35b606060085f8481526020019081526020015f205f8381526020019081526020015f2080548060200260200160405190810160405280929190818152602001828054801561043e57602002820191905f5260205f20905b815f9054906101000a900473ffffffffffffffffffffffffffffffffffffffff1673ffffffffffffffffffffffffffffffffffffffff16815260200190600101908083116103f5575b5050505050905092915050565b60045f3373ffffffffffffffffffffffffffffffffffffffff1673ffffffffffffffffffffffffffffffffffffffff1681526020019081526020015f205f9054906101000a900460ff166104d4576040517f08c379a00000000000000000000000000000000000000000000000000000000081526004016104cb906132d5565b60405180910390fd5b806003541015610519576040517f08c379a00000000000000000000000000000000000000000000000000000000081526004016105109061333d565b60405180910390fd5b8060035f82825461052a9190613388565b9250508190555061053b8282612407565b5050565b6105476124a1565b60075f8381526020019081526020015f20604051806101600160405290815f8201548152602001600182015481526020016002820154815260200160038201548152602001600482015481526020016005820154815260200160068201548152602001600782015f9054906101000a900460ff161515151581526020016007820160019054906101000a900460ff16151515158152602001600882015481526020016009820154815250509050919050565b60045f3373ffffffffffffffffffffffffffffffffffffffff1673ffffffffffffffffffffffffffffffffffffffff1681526020019081526020015f205f9054906101000a900460ff16610682576040517f08c379a0000000000000000000000000000000000000000000000000000000008152600401610679906132d5565b60405180910390fd5b60055f8381526020019081526020015f205f9054906101000a900460ff1680156106bf57508160075f8381526020019081526020015f2060010154145b6106fe576040517f08c379a00000000000000000000000000000000000000000000000000000000081526004016106f590613405565b60405180910390fd5b60075f8281526020019081526020015f206007015f9054906101000a900460ff161561075f576040517f08c379a00000000000000000000000000000000000000000000000000000000081526004016107569061346d565b60405180910390fd5b600160075f8381526020019081526020015f2060070160016101000a81548160ff02191690831515021790555060075f8281526020019081526020015f206009015460035f8282546107b1919061348b565b925050819055505f60075f8381526020019081526020015f20600901819055505050565b60045f3373ffffffffffffffffffffffffffffffffffffffff1673ffffffffffffffffffffffffffffffffffffffff1681526020019081526020015f205f9054906101000a900460ff1661085e576040517f08c379a0000000000000000000000000000000000000000000000000000000008152600401610855906132d5565b60405180910390fd5b5f8451116108a1576040517f08c379a000000000000000000000000000000000000000000000000000000000815260040161089890613508565b60405180910390fd5b5f8351116108e4576040517f08c379a00000000000000000000000000000000000000000000000000000000081526004016108db90613570565b60405180910390fd5b5f825111610927576040517f08c379a000000000000000000000000000000000000000000000000000000000815260040161091e906135d8565b60405180910390fd5b5f81511161096a576040517f08c379a000000000000000000000000000000000000000000000000000000000815260040161096190613640565b60405180910390fd5b5f8081548092919061097b9061365e565b91905055506109886124f4565b5f54815f0181815250508481602001819052508281604001819052508181606001819052506109b561247d565b8160800181815250508060065f835f015181526020019081526020015f205f820151815f015560208201518160010190816109f0919061389f565b506040820151816002019081610a06919061389f565b506060820151816003019081610a1c919061389f565b506080820151816004015560a0820151816005015f6101000a81548160ff021916908315150217905550905050600160055f835f015181526020019081526020015f205f6101000a81548160ff0219169083151502179055507f8b2c14fe955d044ef95ba32b88d2ceb87c6f73fcefdcebe906063a6d75690f27604051610aa2906139b8565b60405180910390a15050505050565b60045f3373ffffffffffffffffffffffffffffffffffffffff1673ffffffffffffffffffffffffffffffffffffffff1681526020019081526020015f205f9054906101000a900460ff16610b3a576040517f08c379a0000000000000000000000000000000000000000000000000000000008152600401610b31906132d5565b60405180910390fd5b60055f8381526020019081526020015f205f9054906101000a900460ff168015610b7757508160075f8381526020019081526020015f2060010154145b610bb6576040517f08c379a0000000000000000000000000000000000000000000000000000000008152600401610bad90613405565b60405180910390fd5b60075f8281526020019081526020015f206007015f9054906101000a900460ff1615610c17576040517f08c379a0000000000000000000000000000000000000000000000000000000008152600401610c0e9061346d565b60405180910390fd5b5f5b60085f8481526020019081526020015f205f8381526020019081526020015f2080549050811015610cce57610cbb60085f8581526020019081526020015f205f8481526020019081526020015f208281548110610c7957610c786139d6565b5b905f5260205f20015f9054906101000a900473ffffffffffffffffffffffffffffffffffffffff1660075f8581526020019081526020015f2060020154612407565b8080610cc69061365e565b915050610c19565b50600160075f8381526020019081526020015f206007015f6101000a81548160ff02191690831515021790555060085f8381526020019081526020015f205f8281526020019081526020015f208054905060075f8381526020019081526020015f2060020154610d3e9190613a03565b60075f8381526020019081526020015f206009015f828254610d609190613388565b9250508190555060085f8381526020019081526020015f205f8281526020019081526020015f205f610d929190612529565b5050565b60045f3373ffffffffffffffffffffffffffffffffffffffff1673ffffffffffffffffffffffffffffffffffffffff1681526020019081526020015f205f9054906101000a900460ff16610e1f576040517f08c379a0000000000000000000000000000000000000000000000000000000008152600401610e16906132d5565b60405180910390fd5b60055f8781526020019081526020015f205f9054906101000a900460ff16610e7c576040517f08c379a0000000000000000000000000000000000000000000000000000000008152600401610e7390613405565b60405180910390fd5b5f855111610ebf576040517f08c379a0000000000000000000000000000000000000000000000000000000008152600401610eb690613a8e565b60405180910390fd5b5f825111610f02576040517f08c379a0000000000000000000000000000000000000000000000000000000008152600401610ef990613af6565b60405180910390fd5b5f845111610f45576040517f08c379a0000000000000000000000000000000000000000000000000000000008152600401610f3c90613b84565b60405180910390fd5b5f835111610f88576040517f08c379a0000000000000000000000000000000000000000000000000000000008152600401610f7f90613bec565b60405180910390fd5b5f815111610fcb576040517f08c379a0000000000000000000000000000000000000000000000000000000008152600401610fc290613c54565b60405180910390fd5b80518551148015610fdd575081518151145b8015610fea575083518251145b8015610ff7575082518451145b8015611004575080518351145b611043576040517f08c379a000000000000000000000000000000000000000000000000000000000815260040161103a90613ce2565b60405180910390fd5b5f5b81518110156111fd5760025f8154809291906110609061365e565b919050555061106d6124a1565b600254815f01818152505087816020018181525050868281518110611095576110946139d6565b5b60200260200101518160400181815250508582815181106110b9576110b86139d6565b5b60200260200101518160600181815250508482815181106110dd576110dc6139d6565b5b6020026020010151816080018181525050828281518110611101576111006139d6565b5b602002602001015181610120018181525050838281518110611126576111256139d6565b5b60200260200101518160a00181815250508060075f835f015181526020019081526020015f205f820151815f01556020820151816001015560408201518160020155606082015181600301556080820151816004015560a0820151816005015560c0820151816006015560e0820151816007015f6101000a81548160ff0219169083151502179055506101008201518160070160016101000a81548160ff021916908315150217905550610120820151816008015561014082015181600901559050505080806111f59061365e565b915050611045565b50505050505050565b60045f3373ffffffffffffffffffffffffffffffffffffffff1673ffffffffffffffffffffffffffffffffffffffff1681526020019081526020015f205f9054906101000a900460ff1661128f576040517f08c379a0000000000000000000000000000000000000000000000000000000008152600401611286906132d5565b60405180910390fd5b60055f8681526020019081526020015f205f9054906101000a900460ff166112ec576040517f08c379a00000000000000000000000000000000000000000000000000000000081526004016112e390613d4a565b60405180910390fd5b5f84511161132f576040517f08c379a000000000000000000000000000000000000000000000000000000000815260040161132690613508565b60405180910390fd5b5f835111611372576040517f08c379a000000000000000000000000000000000000000000000000000000000815260040161136990613db2565b60405180910390fd5b5f8251116113b5576040517f08c379a00000000000000000000000000000000000000000000000000000000081526004016113ac906135d8565b60405180910390fd5b5f8151116113f8576040517f08c379a00000000000000000000000000000000000000000000000000000000081526004016113ef90613640565b60405180910390fd5b5f600190505b6002548111611484575f60085f8881526020019081526020015f205f8381526020019081526020015f2090505f818054905014611470576040517f08c379a000000000000000000000000000000000000000000000000000000000815260040161146790613e40565b60405180910390fd5b50808061147c9061365e565b9150506113fe565b508360065f8781526020019081526020015f2060010190816114a6919061389f565b508160065f8781526020019081526020015f2060020190816114c8919061389f565b508060065f8781526020019081526020015f2060030190816114ea919061389f565b507f8b2c14fe955d044ef95ba32b88d2ceb87c6f73fcefdcebe906063a6d75690f2760405161151890613ea8565b60405180910390a15050505050565b60605f805f90505b6002548110156115b9578360075f60018461154a919061348b565b81526020019081526020015f2060010154148015611592575060075f600183611573919061348b565b81526020019081526020015f206007015f9054906101000a900460ff16155b156115a65781806115a29061365e565b9250505b80806115b19061365e565b91505061152f565b508067ffffffffffffffff8111156115d4576115d3612906565b5b60405190808252806020026020018201604052801561160d57816020015b6115fa6124a1565b8152602001906001900390816115f25790505b5091505f805f90505b600254811015611773578460075f600184611631919061348b565b81526020019081526020015f2060010154148015611679575060075f60018361165a919061348b565b81526020019081526020015f206007015f9054906101000a900460ff16155b156117605760075f60018361168e919061348b565b81526020019081526020015f20604051806101600160405290815f8201548152602001600182015481526020016002820154815260200160038201548152602001600482015481526020016005820154815260200160068201548152602001600782015f9054906101000a900460ff161515151581526020016007820160019054906101000a900460ff16151515158152602001600882015481526020016009820154815250508483806117419061365e565b945081518110611754576117536139d6565b5b60200260200101819052505b808061176b9061365e565b915050611616565b505050919050565b60605f80600190505b5f5481116117d35760065f8281526020019081526020015f206005015f9054906101000a900460ff166117c05781806117bc9061365e565b9250505b80806117cb9061365e565b915050611784565b508067ffffffffffffffff8111156117ee576117ed612906565b5b60405190808252806020026020018201604052801561182757816020015b6118146124f4565b81526020019060019003908161180c5790505b5091505f80600190505b5f548111611a975760065f8281526020019081526020015f206005015f9054906101000a900460ff16611a845760065f8281526020019081526020015f206040518060c00160405290815f8201548152602001600182018054611893906136d2565b80601f01602080910402602001604051908101604052809291908181526020018280546118bf906136d2565b801561190a5780601f106118e15761010080835404028352916020019161190a565b820191905f5260205f20905b8154815290600101906020018083116118ed57829003601f168201915b50505050508152602001600282018054611923906136d2565b80601f016020809104026020016040519081016040528092919081815260200182805461194f906136d2565b801561199a5780601f106119715761010080835404028352916020019161199a565b820191905f5260205f20905b81548152906001019060200180831161197d57829003601f168201915b505050505081526020016003820180546119b3906136d2565b80601f01602080910402602001604051908101604052809291908181526020018280546119df906136d2565b8015611a2a5780601f10611a0157610100808354040283529160200191611a2a565b820191905f5260205f20905b815481529060010190602001808311611a0d57829003601f168201915b5050505050815260200160048201548152602001600582015f9054906101000a900460ff161515151581525050848381518110611a6a57611a696139d6565b5b60200260200101819052508180611a809061365e565b9250505b8080611a8f9061365e565b915050611831565b50505090565b60045f3373ffffffffffffffffffffffffffffffffffffffff1673ffffffffffffffffffffffffffffffffffffffff1681526020019081526020015f205f9054906101000a900460ff16611b26576040517f08c379a0000000000000000000000000000000000000000000000000000000008152600401611b1d906132d5565b60405180910390fd5b60055f8281526020019081526020015f205f9054906101000a900460ff16611b83576040517f08c379a0000000000000000000000000000000000000000000000000000000008152600401611b7a90613d4a565b60405180910390fd5b5f600190505b6002548111611c8e575f60085f8481526020019081526020015f205f8381526020019081526020015f20805480602002602001604051908101604052809291908181526020018280548015611c3057602002820191905f5260205f20905b815f9054906101000a900473ffffffffffffffffffffffffffffffffffffffff1673ffffffffffffffffffffffffffffffffffffffff1681526020019060010190808311611be7575b505050505090505f815114611c7a576040517f08c379a0000000000000000000000000000000000000000000000000000000008152600401611c7190613f36565b60405180910390fd5b508080611c869061365e565b915050611b89565b50600160065f8381526020019081526020015f206005015f6101000a81548160ff0219169083151502179055505f60055f8381526020019081526020015f205f6101000a81548160ff02191690831515021790555050565b60035481565b60055f8481526020019081526020015f205f9054906101000a900460ff168015611d2957508260075f8481526020019081526020015f2060010154145b611d68576040517f08c379a0000000000000000000000000000000000000000000000000000000008152600401611d5f90613405565b60405180910390fd5b8060075f8481526020019081526020015f2060020154611d889190613a03565b341015611dca576040517f08c379a0000000000000000000000000000000000000000000000000000000008152600401611dc190613f9e565b60405180910390fd5b60075f8381526020019081526020015f206006015460075f8481526020019081526020015f206005015411611e34576040517f08c379a0000000000000000000000000000000000000000000000000000000008152600401611e2b90614006565b60405180910390fd5b5f5b81811015611f7f5760015f815480929190611e509061365e565b9190505550611e5d612547565b600154815f01818152505060075f8581526020019081526020015f206002015481606001818152505060075f8581526020019081526020015f20600801548160a001818152505033816040019073ffffffffffffffffffffffffffffffffffffffff16908173ffffffffffffffffffffffffffffffffffffffff1681525050611ee461247d565b81608001818152505060085f8681526020019081526020015f205f8581526020019081526020015f2033908060018154018082558091505060019003905f5260205f20015f9091909190916101000a81548173ffffffffffffffffffffffffffffffffffffffff021916908373ffffffffffffffffffffffffffffffffffffffff160217905550508080611f779061365e565b915050611e36565b508060075f8481526020019081526020015f206006015f828254611fa3919061348b565b925050819055508060075f8481526020019081526020015f2060020154611fca9190613a03565b60075f8481526020019081526020015f206009015f828254611fec919061348b565b92505081905550505050565b60605f805f90505b60025481101561208a578360075f60018461201b919061348b565b81526020019081526020015f2060080154148015612063575060075f600183612044919061348b565b81526020019081526020015f206007015f9054906101000a900460ff16155b156120775781806120739061365e565b9250505b80806120829061365e565b915050612000565b508067ffffffffffffffff8111156120a5576120a4612906565b5b6040519080825280602002602001820160405280156120de57816020015b6120cb6124a1565b8152602001906001900390816120c35790505b5091505f805f90505b6002548110156121f7578460075f600184612102919061348b565b81526020019081526020015f206008015414801561214a575060075f60018361212b919061348b565b81526020019081526020015f206007015f9054906101000a900460ff16155b156121e45760075f60018361215f919061348b565b81526020019081526020015f2060030154848381518110612183576121826139d6565b5b6020026020010151606001818152505060075f6001836121a3919061348b565b81526020019081526020015f20600401548483806121c09061365e565b9450815181106121d3576121d26139d6565b5b602002602001015160800181815250505b80806121ef9061365e565b9150506120e7565b505050919050565b6122076124f4565b60065f8381526020019081526020015f206040518060c00160405290815f820154815260200160018201805461223c906136d2565b80601f0160208091040260200160405190810160405280929190818152602001828054612268906136d2565b80156122b35780601f1061228a576101008083540402835291602001916122b3565b820191905f5260205f20905b81548152906001019060200180831161229657829003601f168201915b505050505081526020016002820180546122cc906136d2565b80601f01602080910402602001604051908101604052809291908181526020018280546122f8906136d2565b80156123435780601f1061231a57610100808354040283529160200191612343565b820191905f5260205f20905b81548152906001019060200180831161232657829003601f168201915b5050505050815260200160038201805461235c906136d2565b80601f0160208091040260200160405190810160405280929190818152602001828054612388906136d2565b80156123d35780601f106123aa576101008083540402835291602001916123d3565b820191905f5260205f20905b8154815290600101906020018083116123b657829003601f168201915b5050505050815260200160048201548152602001600582015f9054906101000a900460ff1615151515815250509050919050565b5f8273ffffffffffffffffffffffffffffffffffffffff168260405161242c90614051565b5f6040518083038185875af1925050503d805f8114612466576040519150601f19603f3d011682016040523d82523d5f602084013e61246b565b606091505b5050905080612478575f80fd5b505050565b5f806103e8804261248e9190613a03565b612498919061348b565b90508091505090565b6040518061016001604052805f81526020015f81526020015f81526020015f81526020015f81526020015f81526020015f81526020015f151581526020015f151581526020015f81526020015f81525090565b6040518060c001604052805f81526020016060815260200160608152602001606081526020015f81526020015f151581525090565b5080545f8255905f5260205f20908101906125449190612595565b50565b6040518060e001604052805f81526020015f81526020015f73ffffffffffffffffffffffffffffffffffffffff1681526020015f81526020015f81526020015f81526020015f151581525090565b5b808211156125ac575f815f905550600101612596565b5090565b5f604051905090565b5f80fd5b5f80fd5b5f819050919050565b6125d3816125c1565b81146125dd575f80fd5b50565b5f813590506125ee816125ca565b92915050565b5f806040838503121561260a576126096125b9565b5b5f612617858286016125e0565b9250506020612628858286016125e0565b9150509250929050565b5f81519050919050565b5f82825260208201905092915050565b5f819050602082019050919050565b5f73ffffffffffffffffffffffffffffffffffffffff82169050919050565b5f6126848261265b565b9050919050565b6126948161267a565b82525050565b5f6126a5838361268b565b60208301905092915050565b5f602082019050919050565b5f6126c782612632565b6126d1818561263c565b93506126dc8361264c565b805f5b8381101561270c5781516126f3888261269a565b97506126fe836126b1565b9250506001810190506126df565b5085935050505092915050565b5f6020820190508181035f83015261273181846126bd565b905092915050565b6127428161267a565b811461274c575f80fd5b50565b5f8135905061275d81612739565b92915050565b5f8060408385031215612779576127786125b9565b5b5f6127868582860161274f565b9250506020612797858286016125e0565b9150509250929050565b5f602082840312156127b6576127b56125b9565b5b5f6127c3848285016125e0565b91505092915050565b6127d5816125c1565b82525050565b5f8115159050919050565b6127ef816127db565b82525050565b61016082015f82015161280a5f8501826127cc565b50602082015161281d60208501826127cc565b50604082015161283060408501826127cc565b50606082015161284360608501826127cc565b50608082015161285660808501826127cc565b5060a082015161286960a08501826127cc565b5060c082015161287c60c08501826127cc565b5060e082015161288f60e08501826127e6565b506101008201516128a46101008501826127e6565b506101208201516128b96101208501826127cc565b506101408201516128ce6101408501826127cc565b50505050565b5f610160820190506128e85f8301846127f5565b92915050565b5f80fd5b5f80fd5b5f601f19601f8301169050919050565b7f4e487b71000000000000000000000000000000000000000000000000000000005f52604160045260245ffd5b61293c826128f6565b810181811067ffffffffffffffff8211171561295b5761295a612906565b5b80604052505050565b5f61296d6125b0565b90506129798282612933565b919050565b5f67ffffffffffffffff82111561299857612997612906565b5b6129a1826128f6565b9050602081019050919050565b828183375f83830152505050565b5f6129ce6129c98461297e565b612964565b9050828152602081018484840111156129ea576129e96128f2565b5b6129f58482856129ae565b509392505050565b5f82601f830112612a1157612a106128ee565b5b8135612a218482602086016129bc565b91505092915050565b5f805f8060808587031215612a4257612a416125b9565b5b5f85013567ffffffffffffffff811115612a5f57612a5e6125bd565b5b612a6b878288016129fd565b945050602085013567ffffffffffffffff811115612a8c57612a8b6125bd565b5b612a98878288016129fd565b935050604085013567ffffffffffffffff811115612ab957612ab86125bd565b5b612ac5878288016129fd565b925050606085013567ffffffffffffffff811115612ae657612ae56125bd565b5b612af2878288016129fd565b91505092959194509250565b5f67ffffffffffffffff821115612b1857612b17612906565b5b602082029050602081019050919050565b5f80fd5b5f612b3f612b3a84612afe565b612964565b90508083825260208201905060208402830185811115612b6257612b61612b29565b5b835b81811015612b8b5780612b7788826125e0565b845260208401935050602081019050612b64565b5050509392505050565b5f82601f830112612ba957612ba86128ee565b5b8135612bb9848260208601612b2d565b91505092915050565b5f805f805f8060c08789031215612bdc57612bdb6125b9565b5b5f612be989828a016125e0565b965050602087013567ffffffffffffffff811115612c0a57612c096125bd565b5b612c1689828a01612b95565b955050604087013567ffffffffffffffff811115612c3757612c366125bd565b5b612c4389828a01612b95565b945050606087013567ffffffffffffffff811115612c6457612c636125bd565b5b612c7089828a01612b95565b935050608087013567ffffffffffffffff811115612c9157612c906125bd565b5b612c9d89828a01612b95565b92505060a087013567ffffffffffffffff811115612cbe57612cbd6125bd565b5b612cca89828a01612b95565b9150509295509295509295565b5f805f805f60a08688031215612cf057612cef6125b9565b5b5f612cfd888289016125e0565b955050602086013567ffffffffffffffff811115612d1e57612d1d6125bd565b5b612d2a888289016129fd565b945050604086013567ffffffffffffffff811115612d4b57612d4a6125bd565b5b612d57888289016129fd565b935050606086013567ffffffffffffffff811115612d7857612d776125bd565b5b612d84888289016129fd565b925050608086013567ffffffffffffffff811115612da557612da46125bd565b5b612db1888289016129fd565b9150509295509295909350565b5f81519050919050565b5f82825260208201905092915050565b5f819050602082019050919050565b61016082015f820151612dfc5f8501826127cc565b506020820151612e0f60208501826127cc565b506040820151612e2260408501826127cc565b506060820151612e3560608501826127cc565b506080820151612e4860808501826127cc565b5060a0820151612e5b60a08501826127cc565b5060c0820151612e6e60c08501826127cc565b5060e0820151612e8160e08501826127e6565b50610100820151612e966101008501826127e6565b50610120820151612eab6101208501826127cc565b50610140820151612ec06101408501826127cc565b50505050565b5f612ed18383612de7565b6101608301905092915050565b5f602082019050919050565b5f612ef482612dbe565b612efe8185612dc8565b9350612f0983612dd8565b805f5b83811015612f39578151612f208882612ec6565b9750612f2b83612ede565b925050600181019050612f0c565b5085935050505092915050565b5f6020820190508181035f830152612f5e8184612eea565b905092915050565b5f81519050919050565b5f82825260208201905092915050565b5f819050602082019050919050565b5f81519050919050565b5f82825260208201905092915050565b5f5b83811015612fc6578082015181840152602081019050612fab565b5f8484015250505050565b5f612fdb82612f8f565b612fe58185612f99565b9350612ff5818560208601612fa9565b612ffe816128f6565b840191505092915050565b5f60c083015f83015161301e5f8601826127cc565b50602083015184820360208601526130368282612fd1565b915050604083015184820360408601526130508282612fd1565b9150506060830151848203606086015261306a8282612fd1565b915050608083015161307f60808601826127cc565b5060a083015161309260a08601826127e6565b508091505092915050565b5f6130a88383613009565b905092915050565b5f602082019050919050565b5f6130c682612f66565b6130d08185612f70565b9350836020820285016130e285612f80565b805f5b8581101561311d57848403895281516130fe858261309d565b9450613109836130b0565b925060208a019950506001810190506130e5565b50829750879550505050505092915050565b5f6020820190508181035f83015261314781846130bc565b905092915050565b613158816125c1565b82525050565b5f6020820190506131715f83018461314f565b92915050565b5f805f6060848603121561318e5761318d6125b9565b5b5f61319b868287016125e0565b93505060206131ac868287016125e0565b92505060406131bd868287016125e0565b9150509250925092565b5f60c083015f8301516131dc5f8601826127cc565b50602083015184820360208601526131f48282612fd1565b9150506040830151848203604086015261320e8282612fd1565b915050606083015184820360608601526132288282612fd1565b915050608083015161323d60808601826127cc565b5060a083015161325060a08601826127e6565b508091505092915050565b5f6020820190508181035f83015261327381846131c7565b905092915050565b5f82825260208201905092915050565b7f43616c6c6572206973206e6f7420616e2061646d696e000000000000000000005f82015250565b5f6132bf60168361327b565b91506132ca8261328b565b602082019050919050565b5f6020820190508181035f8301526132ec816132b3565b9050919050565b7f496e73756666696369656e742066756e640000000000000000000000000000005f82015250565b5f61332760118361327b565b9150613332826132f3565b602082019050919050565b5f6020820190508181035f8301526133548161331b565b9050919050565b7f4e487b71000000000000000000000000000000000000000000000000000000005f52601160045260245ffd5b5f613392826125c1565b915061339d836125c1565b92508282039050818111156133b5576133b461335b565b5b92915050565b7f526f757465206e6f7420666f756e6400000000000000000000000000000000005f82015250565b5f6133ef600f8361327b565b91506133fa826133bb565b602082019050919050565b5f6020820190508181035f83015261341c816133e3565b9050919050565b7f54696d65736c6f7420616c72656164792064656c6574656400000000000000005f82015250565b5f61345760188361327b565b915061346282613423565b602082019050919050565b5f6020820190508181035f8301526134848161344b565b9050919050565b5f613495826125c1565b91506134a0836125c1565b92508282019050808211156134b8576134b761335b565b5b92915050565b7f526f757465206e616d65207265717569726564000000000000000000000000005f82015250565b5f6134f260138361327b565b91506134fd826134be565b602082019050919050565b5f6020820190508181035f83015261351f816134e6565b9050919050565b7f526f75746520696d6167652075726c20726571756972656400000000000000005f82015250565b5f61355a60188361327b565b915061356582613526565b602082019050919050565b5f6020820190508181035f8301526135878161354e565b9050919050565b7f526f7574652063617465676f72792072657175697265640000000000000000005f82015250565b5f6135c260178361327b565b91506135cd8261358e565b602082019050919050565b5f6020820190508181035f8301526135ef816135b6565b9050919050565b7f526f757465206465736372697074696f6e2072657175697265640000000000005f82015250565b5f61362a601a8361327b565b9150613635826135f6565b602082019050919050565b5f6020820190508181035f8301526136578161361e565b9050919050565b5f613668826125c1565b91507fffffffffffffffffffffffffffffffffffffffffffffffffffffffffffffffff820361369a5761369961335b565b5b600182019050919050565b7f4e487b71000000000000000000000000000000000000000000000000000000005f52602260045260245ffd5b5f60028204905060018216806136e957607f821691505b6020821081036136fc576136fb6136a5565b5b50919050565b5f819050815f5260205f209050919050565b5f6020601f8301049050919050565b5f82821b905092915050565b5f6008830261375e7fffffffffffffffffffffffffffffffffffffffffffffffffffffffffffffffff82613723565b6137688683613723565b95508019841693508086168417925050509392505050565b5f819050919050565b5f6137a361379e613799846125c1565b613780565b6125c1565b9050919050565b5f819050919050565b6137bc83613789565b6137d06137c8826137aa565b84845461372f565b825550505050565b5f90565b6137e46137d8565b6137ef8184846137b3565b505050565b5b81811015613812576138075f826137dc565b6001810190506137f5565b5050565b601f8211156138575761382881613702565b61383184613714565b81016020851015613840578190505b61385461384c85613714565b8301826137f4565b50505b505050565b5f82821c905092915050565b5f6138775f198460080261385c565b1980831691505092915050565b5f61388f8383613868565b9150826002028217905092915050565b6138a882612f8f565b67ffffffffffffffff8111156138c1576138c0612906565b5b6138cb82546136d2565b6138d6828285613816565b5f60209050601f831160018114613907575f84156138f5578287015190505b6138ff8582613884565b865550613966565b601f19841661391586613702565b5f5b8281101561393c57848901518255600182019150602085019450602081019050613917565b868310156139595784890151613955601f891682613868565b8355505b6001600288020188555050505b505050505050565b7f526f757465206164646564207375636365737366756c6c7900000000000000005f82015250565b5f6139a260188361327b565b91506139ad8261396e565b602082019050919050565b5f6020820190508181035f8301526139cf81613996565b9050919050565b7f4e487b71000000000000000000000000000000000000000000000000000000005f52603260045260245ffd5b5f613a0d826125c1565b9150613a18836125c1565b9250828202613a26816125c1565b91508282048414831517613a3d57613a3c61335b565b5b5092915050565b7f5469636b65747320636f7374206d757374206e6f7420626520656d70747900005f82015250565b5f613a78601e8361327b565b9150613a8382613a44565b602082019050919050565b5f6020820190508181035f830152613aa581613a6c565b9050919050565b7f43617061636974696573206d757374206e6f7420626520656d707479000000005f82015250565b5f613ae0601c8361327b565b9150613aeb82613aac565b602082019050919050565b5f6020820190508181035f830152613b0d81613ad4565b9050919050565b7f53746172742074696d657320636f7374206d757374206e6f7420626520656d705f8201527f7479000000000000000000000000000000000000000000000000000000000000602082015250565b5f613b6e60228361327b565b9150613b7982613b14565b604082019050919050565b5f6020820190508181035f830152613b9b81613b62565b9050919050565b7f456e642074696d657320636f7374206d757374206e6f7420626520656d7074795f82015250565b5f613bd660208361327b565b9150613be182613ba2565b602082019050919050565b5f6020820190508181035f830152613c0381613bca565b9050919050565b7f54726176656c2064617973206d757374206e6f7420626520656d7074790000005f82015250565b5f613c3e601d8361327b565b9150613c4982613c0a565b602082019050919050565b5f6020820190508181035f830152613c6b81613c32565b9050919050565b7f416c6c20706172616d6574657273206d757374206861766520657175616c20615f8201527f72726179206c656e677468000000000000000000000000000000000000000000602082015250565b5f613ccc602b8361327b565b9150613cd782613c72565b604082019050919050565b5f6020820190508181035f830152613cf981613cc0565b9050919050565b7f526f75746520646f65736e2774206578697374210000000000000000000000005f82015250565b5f613d3460148361327b565b9150613d3f82613d00565b602082019050919050565b5f6020820190508181035f830152613d6181613d28565b9050919050565b7f526f75746520696d6167652055524c20726571756972656400000000000000005f82015250565b5f613d9c60188361327b565b9150613da782613d68565b602082019050919050565b5f6020820190508181035f830152613dc981613d90565b9050919050565b7f43616e6e6f742075706461746520726f757465207769746820707572636861735f8201527f6564207469636b65747300000000000000000000000000000000000000000000602082015250565b5f613e2a602a8361327b565b9150613e3582613dd0565b604082019050919050565b5f6020820190508181035f830152613e5781613e1e565b9050919050565b7f526f7574652075706461746564207375636365737366756c6c790000000000005f82015250565b5f613e92601a8361327b565b9150613e9d82613e5e565b602082019050919050565b5f6020820190508181035f830152613ebf81613e86565b9050919050565b7f43616e6e6f742064656c65746520726f757465207769746820707572636861735f8201527f6564207469636b65747300000000000000000000000000000000000000000000602082015250565b5f613f20602a8361327b565b9150613f2b82613ec6565b604082019050919050565b5f6020820190508181035f830152613f4d81613f14565b9050919050565b7f496e73756666696369656e7420616d6f756e74000000000000000000000000005f82015250565b5f613f8860138361327b565b9150613f9382613f54565b602082019050919050565b5f6020820190508181035f830152613fb581613f7c565b9050919050565b7f4f7574206f6620636170616369747900000000000000000000000000000000005f82015250565b5f613ff0600f8361327b565b9150613ffb82613fbc565b602082019050919050565b5f6020820190508181035f83015261401d81613fe4565b9050919050565b5f81905092915050565b50565b5f61403c5f83614024565b91506140478261402e565b5f82019050919050565b5f61405b82614031565b915081905091905056fea26469706673582212201cd5e4b8d43ef2272f2f7e579d33cce0ec612483611b057ec9f3550e52fccf2264736f6c63430008150033",
  "immutableReferences": {},
  "source": "// SPDX-License-Identifier: MIT\npragma solidity >=0.7.0 <0.9.0;\n\ncontract Travel {\n    uint256 _totalRoutes = 0;\n    uint256 _totalTickets = 0;\n    uint256 _totalSlots = 0;\n\n    struct RouteStruct {\n        uint256 id;\n        string name;\n        string category;\n        string description;\n        uint256 timestamp;\n        bool deleted;\n    }\n\n    struct TicketStruct {\n        uint256 id;\n        uint256 routeId;\n        address owner;\n        uint256 cost;\n        uint256 timestamp;\n        uint256 day;\n        bool refunded;\n    }\n\n    struct TimeSlotStruct {\n        uint256 id;\n        uint256 routeId;\n        uint256 ticketCost;\n        uint256 startTime;\n        uint256 endTime;\n        uint256 capacity;\n        uint256 seats;\n        bool deleted;\n        bool completed;\n        uint256 day;\n        uint256 balance;\n    }\n\n    event Action(string actionType);\n\n    uint256 public balance;\n    mapping(address => bool) isAdmin;\n    mapping(uint256 => bool) routeExists;\n    mapping(uint256 => RouteStruct) routes;\n    mapping(uint256 => TimeSlotStruct) routeTimeSlot;\n    mapping(uint256 => mapping(uint256 => address[])) ticketHolder;\n\n    constructor() {\n        isAdmin[msg.sender] = true;\n    }\n\n    modifier onlyAdmin() {\n        require(isAdmin[msg.sender], \"Caller is not an admin\");\n        _;\n    }\n\n    function addRoute(\n        string memory name,\n        string memory imageUrl,\n        string memory category,\n        string memory description\n    ) public onlyAdmin {\n        require(bytes(name).length > 0, \"Route name required\");\n        require(bytes(imageUrl).length > 0, \"Route image url required\");\n        require(bytes(category).length > 0, \"Route category required\");\n        require(bytes(description).length > 0, \"Route description required\");\n\n        _totalRoutes++;\n        RouteStruct memory route;\n\n        route.id = _totalRoutes;\n        route.name = name;\n        route.category = category;\n        route.description = description;\n        route.timestamp = currentTime();\n\n        routes[route.id] = route;\n        routeExists[route.id] = true;\n\n        emit Action(\"Route added successfully\");\n    }\n\n    function updateRoute(\n        uint256 routeId,\n        string memory name,\n        string memory imageUrl,\n        string memory category,\n        string memory description\n    ) public onlyAdmin {\n        require(routeExists[routeId], \"Route doesn't exist!\");\n        require(bytes(name).length > 0, \"Route name required\");\n        require(bytes(imageUrl).length > 0, \"Route image URL required\");\n        require(bytes(category).length > 0, \"Route category required\");\n        require(bytes(description).length > 0, \"Route description required\");\n\n        for (uint256 slotId = 1; slotId <= _totalSlots; slotId++) {\n            address[] storage holders = ticketHolder[routeId][slotId];\n            require(\n                holders.length == 0,\n                \"Cannot update route with purchased tickets\"\n            );\n        }\n\n        routes[routeId].name = name;\n        routes[routeId].category = category;\n        routes[routeId].description = description;\n\n        emit Action(\"Route updated successfully\");\n    }\n\n    function deleteRoute(uint256 routeId) public onlyAdmin {\n        require(routeExists[routeId], \"Route doesn't exist!\");\n\n        for (uint256 slotId = 1; slotId <= _totalSlots; slotId++) {\n            address[] memory holders = ticketHolder[routeId][slotId];\n            require(\n                holders.length == 0,\n                \"Cannot delete route with purchased tickets\"\n            );\n        }\n\n        routes[routeId].deleted = true;\n        routeExists[routeId] = false;\n    }\n\n    function getRoutes() public view returns (RouteStruct[] memory Routes) {\n        uint256 totalRoutes;\n        for (uint256 i = 1; i <= _totalRoutes; i++) {\n            if (!routes[i].deleted) totalRoutes++;\n        }\n\n        Routes = new RouteStruct[](totalRoutes);\n\n        uint256 j = 0;\n        for (uint256 i = 1; i <= _totalRoutes; i++) {\n            if (!routes[i].deleted) {\n                Routes[j] = routes[i];\n                j++;\n            }\n        }\n    }\n\n    function getRoute(uint256 id) public view returns (RouteStruct memory) {\n        return routes[id];\n    }\n\n    function addTimeslot(\n        uint256 routeId,\n        uint256[] memory ticketCosts,\n        uint256[] memory startTimes,\n        uint256[] memory endTimes,\n        uint256[] memory capacities,\n        uint256[] memory travelDays\n    ) public onlyAdmin {\n        require(routeExists[routeId], \"Route not found\");\n        require(ticketCosts.length > 0, \"Tickets cost must not be empty\");\n        require(capacities.length > 0, \"Capacities must not be empty\");\n        require(startTimes.length > 0, \"Start times cost must not be empty\");\n        require(endTimes.length > 0, \"End times cost must not be empty\");\n        require(travelDays.length > 0, \"Travel days must not be empty\");\n        require(\n            ticketCosts.length == travelDays.length &&\n                travelDays.length == capacities.length &&\n                capacities.length == startTimes.length &&\n                startTimes.length == endTimes.length &&\n                endTimes.length == travelDays.length,\n            \"All parameters must have equal array length\"\n        );\n\n        for (uint i = 0; i < travelDays.length; i++) {\n            _totalSlots++;\n            TimeSlotStruct memory slot;\n\n            slot.id = _totalSlots;\n            slot.routeId = routeId;\n            slot.ticketCost = ticketCosts[i];\n            slot.startTime = startTimes[i];\n            slot.endTime = endTimes[i];\n            slot.day = travelDays[i];\n            slot.capacity = capacities[i];\n\n            routeTimeSlot[slot.id] = slot;\n        }\n    }\n\n    function deleteTimeSlot(uint256 routeId, uint256 slotId) public onlyAdmin {\n        require(\n            routeExists[routeId] && routeTimeSlot[slotId].routeId == routeId,\n            \"Route not found\"\n        );\n        require(!routeTimeSlot[slotId].deleted, \"Timeslot already deleted\");\n\n        for (uint i = 0; i < ticketHolder[routeId][slotId].length; i++) {\n            payTo(\n                ticketHolder[routeId][slotId][i],\n                routeTimeSlot[slotId].ticketCost\n            );\n        }\n\n        routeTimeSlot[slotId].deleted = true;\n\n        routeTimeSlot[slotId].balance -=\n            routeTimeSlot[slotId].ticketCost *\n            ticketHolder[routeId][slotId].length;\n\n        delete ticketHolder[routeId][slotId];\n    }\n\n    function markTimeSlot(uint256 routeId, uint256 slotId) public onlyAdmin {\n        require(\n            routeExists[routeId] && routeTimeSlot[slotId].routeId == routeId,\n            \"Route not found\"\n        );\n        require(!routeTimeSlot[slotId].deleted, \"Timeslot already deleted\");\n\n        routeTimeSlot[slotId].completed = true;\n        balance += routeTimeSlot[slotId].balance;\n        routeTimeSlot[slotId].balance = 0;\n    }\n\n    function getTimeSlotsByDay(\n        uint256 day\n    ) public view returns (TimeSlotStruct[] memory RouteSlots) {\n        uint256 available;\n        for (uint i = 0; i < _totalSlots; i++) {\n            if (\n                routeTimeSlot[i + 1].day == day && !routeTimeSlot[i + 1].deleted\n            ) {\n                available++;\n            }\n        }\n\n        RouteSlots = new TimeSlotStruct[](available);\n\n        uint256 index;\n        for (uint i = 0; i < _totalSlots; i++) {\n            if (\n                routeTimeSlot[i + 1].day == day && !routeTimeSlot[i + 1].deleted\n            ) {\n                RouteSlots[index].startTime = routeTimeSlot[i + 1].startTime;\n                RouteSlots[index++].endTime = routeTimeSlot[i + 1].endTime;\n            }\n        }\n    }\n\n    function getTimeSlot(\n        uint256 slotId\n    ) public view returns (TimeSlotStruct memory) {\n        return routeTimeSlot[slotId];\n    }\n\n    function getTimeSlots(\n        uint256 routeId\n    ) public view returns (TimeSlotStruct[] memory RouteSlots) {\n        uint256 available;\n        for (uint i = 0; i < _totalSlots; i++) {\n            if (\n                routeTimeSlot[i + 1].routeId == routeId &&\n                !routeTimeSlot[i + 1].deleted\n            ) {\n                available++;\n            }\n        }\n\n        RouteSlots = new TimeSlotStruct[](available);\n\n        uint256 index;\n        for (uint i = 0; i < _totalSlots; i++) {\n            if (\n                routeTimeSlot[i + 1].routeId == routeId &&\n                !routeTimeSlot[i + 1].deleted\n            ) {\n                RouteSlots[index++] = routeTimeSlot[i + 1];\n            }\n        }\n    }\n\n    function buyTicket(\n        uint256 routeId,\n        uint256 slotId,\n        uint256 tickets\n    ) public payable {\n        require(\n            routeExists[routeId] && routeTimeSlot[slotId].routeId == routeId,\n            \"Route not found\"\n        );\n        require(\n            msg.value >= routeTimeSlot[slotId].ticketCost * tickets,\n            \"Insufficient amount\"\n        );\n        require(\n            routeTimeSlot[slotId].capacity > routeTimeSlot[slotId].seats,\n            \"Out of capacity\"\n        );\n\n        for (uint i = 0; i < tickets; i++) {\n            _totalTickets++;\n            TicketStruct memory ticket;\n\n            ticket.id = _totalTickets;\n            ticket.cost = routeTimeSlot[slotId].ticketCost;\n            ticket.day = routeTimeSlot[slotId].day;\n            ticket.owner = msg.sender;\n            ticket.timestamp = currentTime();\n\n            ticketHolder[routeId][slotId].push(msg.sender);\n        }\n\n        routeTimeSlot[slotId].seats += tickets;\n        routeTimeSlot[slotId].balance +=\n            routeTimeSlot[slotId].ticketCost *\n            tickets;\n    }\n\n    function getRouteTicketHolders(\n        uint256 routeId,\n        uint256 slotId\n    ) public view returns (address[] memory) {\n        return ticketHolder[routeId][slotId];\n    }\n\n    function withdrawTo(address to, uint256 amount) public onlyAdmin {\n        require(balance >= amount, \"Insufficient fund\");\n        balance -= amount;\n        payTo(to, amount);\n    }\n\n    function payTo(address to, uint256 amount) internal {\n        (bool success, ) = payable(to).call{value: amount}(\"\");\n        require(success);\n    }\n\n    function currentTime() internal view returns (uint256) {\n        uint256 newNum = (block.timestamp * 1000) + 1000;\n        return newNum;\n    }\n}\n",
  "sourcePath": "/home/kunal/eoeo/contracts/Travel.sol",
  "compiler": {
    "name": "solc",
    "version": "0.8.21+commit.d9974bed.Emscripten.clang"
  },
  "schemaVersion": "3.4.16",
  "updatedAt": "2024-12-16T14:16:43.317Z",
  "devdoc": {
    "kind": "dev",
    "methods": {},
    "version": 1
  },
  "userdoc": {
    "kind": "user",
    "methods": {},
    "version": 1
  }
}